{"abi":[{"type":"constructor","inputs":[{"name":"name_","type":"string","internalType":"string"},{"name":"symbol_","type":"string","internalType":"string"},{"name":"_owner","type":"address","internalType":"address"}],"stateMutability":"nonpayable"},{"type":"function","name":"allowance","inputs":[{"name":"owner","type":"address","internalType":"address"},{"name":"spender","type":"address","internalType":"address"}],"outputs":[{"name":"","type":"uint256","internalType":"uint256"}],"stateMutability":"view"},{"type":"function","name":"amm","inputs":[],"outputs":[{"name":"","type":"address","internalType":"address"}],"stateMutability":"view"},{"type":"function","name":"approve","inputs":[{"name":"spender","type":"address","internalType":"address"},{"name":"value","type":"uint256","internalType":"uint256"}],"outputs":[{"name":"","type":"bool","internalType":"bool"}],"stateMutability":"nonpayable"},{"type":"function","name":"balanceOf","inputs":[{"name":"account","type":"address","internalType":"address"}],"outputs":[{"name":"","type":"uint256","internalType":"uint256"}],"stateMutability":"view"},{"type":"function","name":"burn","inputs":[{"name":"from","type":"address","internalType":"address"},{"name":"amount","type":"uint256","internalType":"uint256"}],"outputs":[],"stateMutability":"nonpayable"},{"type":"function","name":"decimals","inputs":[],"outputs":[{"name":"","type":"uint8","internalType":"uint8"}],"stateMutability":"view"},{"type":"function","name":"mint","inputs":[{"name":"to","type":"address","internalType":"address"},{"name":"amount","type":"uint256","internalType":"uint256"}],"outputs":[],"stateMutability":"nonpayable"},{"type":"function","name":"name","inputs":[],"outputs":[{"name":"","type":"string","internalType":"string"}],"stateMutability":"view"},{"type":"function","name":"owner","inputs":[],"outputs":[{"name":"","type":"address","internalType":"address"}],"stateMutability":"view"},{"type":"function","name":"renounceOwnership","inputs":[],"outputs":[],"stateMutability":"nonpayable"},{"type":"function","name":"setAMM","inputs":[{"name":"_amm","type":"address","internalType":"address"}],"outputs":[],"stateMutability":"nonpayable"},{"type":"function","name":"symbol","inputs":[],"outputs":[{"name":"","type":"string","internalType":"string"}],"stateMutability":"view"},{"type":"function","name":"totalSupply","inputs":[],"outputs":[{"name":"","type":"uint256","internalType":"uint256"}],"stateMutability":"view"},{"type":"function","name":"transfer","inputs":[{"name":"to","type":"address","internalType":"address"},{"name":"value","type":"uint256","internalType":"uint256"}],"outputs":[{"name":"","type":"bool","internalType":"bool"}],"stateMutability":"nonpayable"},{"type":"function","name":"transferFrom","inputs":[{"name":"from","type":"address","internalType":"address"},{"name":"to","type":"address","internalType":"address"},{"name":"value","type":"uint256","internalType":"uint256"}],"outputs":[{"name":"","type":"bool","internalType":"bool"}],"stateMutability":"nonpayable"},{"type":"function","name":"transferOwnership","inputs":[{"name":"newOwner","type":"address","internalType":"address"}],"outputs":[],"stateMutability":"nonpayable"},{"type":"event","name":"Approval","inputs":[{"name":"owner","type":"address","indexed":true,"internalType":"address"},{"name":"spender","type":"address","indexed":true,"internalType":"address"},{"name":"value","type":"uint256","indexed":false,"internalType":"uint256"}],"anonymous":false},{"type":"event","name":"OwnershipTransferred","inputs":[{"name":"previousOwner","type":"address","indexed":true,"internalType":"address"},{"name":"newOwner","type":"address","indexed":true,"internalType":"address"}],"anonymous":false},{"type":"event","name":"Transfer","inputs":[{"name":"from","type":"address","indexed":true,"internalType":"address"},{"name":"to","type":"address","indexed":true,"internalType":"address"},{"name":"value","type":"uint256","indexed":false,"internalType":"uint256"}],"anonymous":false},{"type":"error","name":"ERC20InsufficientAllowance","inputs":[{"name":"spender","type":"address","internalType":"address"},{"name":"allowance","type":"uint256","internalType":"uint256"},{"name":"needed","type":"uint256","internalType":"uint256"}]},{"type":"error","name":"ERC20InsufficientBalance","inputs":[{"name":"sender","type":"address","internalType":"address"},{"name":"balance","type":"uint256","internalType":"uint256"},{"name":"needed","type":"uint256","internalType":"uint256"}]},{"type":"error","name":"ERC20InvalidApprover","inputs":[{"name":"approver","type":"address","internalType":"address"}]},{"type":"error","name":"ERC20InvalidReceiver","inputs":[{"name":"receiver","type":"address","internalType":"address"}]},{"type":"error","name":"ERC20InvalidSender","inputs":[{"name":"sender","type":"address","internalType":"address"}]},{"type":"error","name":"ERC20InvalidSpender","inputs":[{"name":"spender","type":"address","internalType":"address"}]},{"type":"error","name":"OwnableInvalidOwner","inputs":[{"name":"owner","type":"address","internalType":"address"}]},{"type":"error","name":"OwnableUnauthorizedAccount","inputs":[{"name":"account","type":"address","internalType":"address"}]}],"bytecode":{"object":"0x608060405234801562000010575f80fd5b5060405162000e5a38038062000e5a8339810160408190526200003391620001a8565b8083836003620000448382620002bb565b506004620000538282620002bb565b5050506001600160a01b0381166200008457604051631e4fbdf760e01b81525f600482015260240160405180910390fd5b6200008f8162000099565b5050505062000383565b600580546001600160a01b038381166001600160a01b0319831681179093556040519116919082907f8be0079c531659141344cd1fd0a4f28419497f9722a3daafe3b4186f6b6457e0905f90a35050565b634e487b7160e01b5f52604160045260245ffd5b5f82601f8301126200010e575f80fd5b81516001600160401b03808211156200012b576200012b620000ea565b604051601f8301601f19908116603f01168101908282118183101715620001565762000156620000ea565b8160405283815260209250868385880101111562000172575f80fd5b5f91505b8382101562000195578582018301518183018401529082019062000176565b5f93810190920192909252949350505050565b5f805f60608486031215620001bb575f80fd5b83516001600160401b0380821115620001d2575f80fd5b620001e087838801620000fe565b94506020860151915080821115620001f6575f80fd5b506200020586828701620000fe565b604086015190935090506001600160a01b038116811462000224575f80fd5b809150509250925092565b600181811c908216806200024457607f821691505b6020821081036200026357634e487b7160e01b5f52602260045260245ffd5b50919050565b601f821115620002b6575f81815260208120601f850160051c81016020861015620002915750805b601f850160051c820191505b81811015620002b2578281556001016200029d565b5050505b505050565b81516001600160401b03811115620002d757620002d7620000ea565b620002ef81620002e884546200022f565b8462000269565b602080601f83116001811462000325575f84156200030d5750858301515b5f19600386901b1c1916600185901b178555620002b2565b5f85815260208120601f198616915b82811015620003555788860151825594840194600190910190840162000334565b50858210156200037357878501515f19600388901b60f8161c191681555b5050505050600190811b01905550565b610ac980620003915f395ff3fe608060405234801561000f575f80fd5b50600436106100fb575f3560e01c8063715018a611610093578063a9059cbb11610063578063a9059cbb14610210578063aa8ea3a014610223578063dd62ed3e14610236578063f2fde38b1461026e575f80fd5b8063715018a6146101dc5780638da5cb5b146101e457806395d89b41146101f55780639dc29fac146101fd575f80fd5b80632a943945116100ce5780632a94394514610165578063313ce5671461019057806340c10f191461019f57806370a08231146101b4575f80fd5b806306fdde03146100ff578063095ea7b31461011d57806318160ddd1461014057806323b872dd14610152575b5f80fd5b610107610281565b6040516101149190610924565b60405180910390f35b61013061012b36600461098a565b610311565b6040519015158152602001610114565b6002545b604051908152602001610114565b6101306101603660046109b2565b61032a565b600654610178906001600160a01b031681565b6040516001600160a01b039091168152602001610114565b60405160128152602001610114565b6101b26101ad36600461098a565b61034d565b005b6101446101c23660046109eb565b6001600160a01b03165f9081526020819052604090205490565b6101b26103ba565b6005546001600160a01b0316610178565b6101076103cd565b6101b261020b36600461098a565b6103dc565b61013061021e36600461098a565b610440565b6101b26102313660046109eb565b61044d565b610144610244366004610a0b565b6001600160a01b039182165f90815260016020908152604080832093909416825291909152205490565b6101b261027c3660046109eb565b61051e565b60606003805461029090610a3c565b80601f01602080910402602001604051908101604052809291908181526020018280546102bc90610a3c565b80156103075780601f106102de57610100808354040283529160200191610307565b820191905f5260205f20905b8154815290600101906020018083116102ea57829003601f168201915b5050505050905090565b5f3361031e81858561055b565b60019150505b92915050565b5f3361033785828561056d565b6103428585856105e9565b506001949350505050565b6006546001600160a01b031633146103ac5760405162461bcd60e51b815260206004820152601f60248201527f4c50546f6b656e3a204f6e6c7920414d4d2063616e206d696e742f6275726e0060448201526064015b60405180910390fd5b6103b68282610646565b5050565b6103c261067a565b6103cb5f6106a7565b565b60606004805461029090610a3c565b6006546001600160a01b031633146104365760405162461bcd60e51b815260206004820152601f60248201527f4c50546f6b656e3a204f6e6c7920414d4d2063616e206d696e742f6275726e0060448201526064016103a3565b6103b682826106f8565b5f3361031e8185856105e9565b6001600160a01b0381166104a35760405162461bcd60e51b815260206004820152601c60248201527f4c50546f6b656e3a20496e76616c696420414d4d20616464726573730000000060448201526064016103a3565b6006546001600160a01b0316156104fc5760405162461bcd60e51b815260206004820152601860248201527f4c50546f6b656e3a20414d4d20616c726561647920736574000000000000000060448201526064016103a3565b600680546001600160a01b0319166001600160a01b0392909216919091179055565b61052661067a565b6001600160a01b03811661054f57604051631e4fbdf760e01b81525f60048201526024016103a3565b610558816106a7565b50565b610568838383600161072c565b505050565b6001600160a01b038381165f908152600160209081526040808320938616835292905220545f198110156105e357818110156105d557604051637dc7a0d960e11b81526001600160a01b038416600482015260248101829052604481018390526064016103a3565b6105e384848484035f61072c565b50505050565b6001600160a01b03831661061257604051634b637e8f60e11b81525f60048201526024016103a3565b6001600160a01b03821661063b5760405163ec442f0560e01b81525f60048201526024016103a3565b6105688383836107fe565b6001600160a01b03821661066f5760405163ec442f0560e01b81525f60048201526024016103a3565b6103b65f83836107fe565b6005546001600160a01b031633146103cb5760405163118cdaa760e01b81523360048201526024016103a3565b600580546001600160a01b038381166001600160a01b0319831681179093556040519116919082907f8be0079c531659141344cd1fd0a4f28419497f9722a3daafe3b4186f6b6457e0905f90a35050565b6001600160a01b03821661072157604051634b637e8f60e11b81525f60048201526024016103a3565b6103b6825f836107fe565b6001600160a01b0384166107555760405163e602df0560e01b81525f60048201526024016103a3565b6001600160a01b03831661077e57604051634a1406b160e11b81525f60048201526024016103a3565b6001600160a01b038085165f90815260016020908152604080832093871683529290522082905580156105e357826001600160a01b0316846001600160a01b03167f8c5be1e5ebec7d5bd14f71427d1e84f3dd0314c0f7b2291e5b200ac8c7c3b925846040516107f091815260200190565b60405180910390a350505050565b6001600160a01b038316610828578060025f82825461081d9190610a74565b909155506108989050565b6001600160a01b0383165f908152602081905260409020548181101561087a5760405163391434e360e21b81526001600160a01b038516600482015260248101829052604481018390526064016103a3565b6001600160a01b0384165f9081526020819052604090209082900390555b6001600160a01b0382166108b4576002805482900390556108d2565b6001600160a01b0382165f9081526020819052604090208054820190555b816001600160a01b0316836001600160a01b03167fddf252ad1be2c89b69c2b068fc378daa952ba7f163c4a11628f55a4df523b3ef8360405161091791815260200190565b60405180910390a3505050565b5f6020808352835180828501525f5b8181101561094f57858101830151858201604001528201610933565b505f604082860101526040601f19601f8301168501019250505092915050565b80356001600160a01b0381168114610985575f80fd5b919050565b5f806040838503121561099b575f80fd5b6109a48361096f565b946020939093013593505050565b5f805f606084860312156109c4575f80fd5b6109cd8461096f565b92506109db6020850161096f565b9150604084013590509250925092565b5f602082840312156109fb575f80fd5b610a048261096f565b9392505050565b5f8060408385031215610a1c575f80fd5b610a258361096f565b9150610a336020840161096f565b90509250929050565b600181811c90821680610a5057607f821691505b602082108103610a6e57634e487b7160e01b5f52602260045260245ffd5b50919050565b8082018082111561032457634e487b7160e01b5f52601160045260245ffdfea2646970667358221220b481c72e330a8e4d783ed6e8adc4c85d71a8a81c9433c56c91044df9dfe8abbb64736f6c63430008140033","linkReferences":{}},"methodIdentifiers":{"allowance(address,address)":"dd62ed3e","amm()":"2a943945","approve(address,uint256)":"095ea7b3","balanceOf(address)":"70a08231","burn(address,uint256)":"9dc29fac","decimals()":"313ce567","mint(address,uint256)":"40c10f19","name()":"06fdde03","owner()":"8da5cb5b","renounceOwnership()":"715018a6","setAMM(address)":"aa8ea3a0","symbol()":"95d89b41","totalSupply()":"18160ddd","transfer(address,uint256)":"a9059cbb","transferFrom(address,address,uint256)":"23b872dd","transferOwnership(address)":"f2fde38b"},"id":32}