{"abi":[{"type":"constructor","inputs":[{"name":"_tokenA","type":"address","internalType":"address"},{"name":"_tokenB","type":"address","internalType":"address"},{"name":"_owner","type":"address","internalType":"address"}],"stateMutability":"nonpayable"},{"type":"function","name":"FEE","inputs":[],"outputs":[{"name":"","type":"uint256","internalType":"uint256"}],"stateMutability":"view"},{"type":"function","name":"FEE_DENOMINATOR","inputs":[],"outputs":[{"name":"","type":"uint256","internalType":"uint256"}],"stateMutability":"view"},{"type":"function","name":"addLiquidity","inputs":[{"name":"amountADesired","type":"uint256","internalType":"uint256"},{"name":"amountBDesired","type":"uint256","internalType":"uint256"},{"name":"amountAMin","type":"uint256","internalType":"uint256"},{"name":"amountBMin","type":"uint256","internalType":"uint256"}],"outputs":[{"name":"amountA","type":"uint256","internalType":"uint256"},{"name":"amountB","type":"uint256","internalType":"uint256"},{"name":"liquidity","type":"uint256","internalType":"uint256"}],"stateMutability":"nonpayable"},{"type":"function","name":"getAmountOut","inputs":[{"name":"amountIn","type":"uint256","internalType":"uint256"},{"name":"reserveIn","type":"uint256","internalType":"uint256"},{"name":"reserveOut","type":"uint256","internalType":"uint256"}],"outputs":[{"name":"","type":"uint256","internalType":"uint256"}],"stateMutability":"pure"},{"type":"function","name":"getReserves","inputs":[],"outputs":[{"name":"","type":"uint256","internalType":"uint256"},{"name":"","type":"uint256","internalType":"uint256"}],"stateMutability":"view"},{"type":"function","name":"lpToken","inputs":[],"outputs":[{"name":"","type":"address","internalType":"contract LPToken"}],"stateMutability":"view"},{"type":"function","name":"owner","inputs":[],"outputs":[{"name":"","type":"address","internalType":"address"}],"stateMutability":"view"},{"type":"function","name":"removeLiquidity","inputs":[{"name":"liquidity","type":"uint256","internalType":"uint256"},{"name":"amountAMin","type":"uint256","internalType":"uint256"},{"name":"amountBMin","type":"uint256","internalType":"uint256"}],"outputs":[{"name":"amountA","type":"uint256","internalType":"uint256"},{"name":"amountB","type":"uint256","internalType":"uint256"}],"stateMutability":"nonpayable"},{"type":"function","name":"renounceOwnership","inputs":[],"outputs":[],"stateMutability":"nonpayable"},{"type":"function","name":"reserveA","inputs":[],"outputs":[{"name":"","type":"uint256","internalType":"uint256"}],"stateMutability":"view"},{"type":"function","name":"reserveB","inputs":[],"outputs":[{"name":"","type":"uint256","internalType":"uint256"}],"stateMutability":"view"},{"type":"function","name":"swapAForB","inputs":[{"name":"amountIn","type":"uint256","internalType":"uint256"},{"name":"amountOutMin","type":"uint256","internalType":"uint256"}],"outputs":[{"name":"amountOut","type":"uint256","internalType":"uint256"}],"stateMutability":"nonpayable"},{"type":"function","name":"swapBForA","inputs":[{"name":"amountIn","type":"uint256","internalType":"uint256"},{"name":"amountOutMin","type":"uint256","internalType":"uint256"}],"outputs":[{"name":"amountOut","type":"uint256","internalType":"uint256"}],"stateMutability":"nonpayable"},{"type":"function","name":"tokenA","inputs":[],"outputs":[{"name":"","type":"address","internalType":"contract IERC20"}],"stateMutability":"view"},{"type":"function","name":"tokenB","inputs":[],"outputs":[{"name":"","type":"address","internalType":"contract IERC20"}],"stateMutability":"view"},{"type":"function","name":"transferOwnership","inputs":[{"name":"newOwner","type":"address","internalType":"address"}],"outputs":[],"stateMutability":"nonpayable"},{"type":"event","name":"LiquidityAdded","inputs":[{"name":"provider","type":"address","indexed":true,"internalType":"address"},{"name":"amountA","type":"uint256","indexed":false,"internalType":"uint256"},{"name":"amountB","type":"uint256","indexed":false,"internalType":"uint256"},{"name":"liquidity","type":"uint256","indexed":false,"internalType":"uint256"}],"anonymous":false},{"type":"event","name":"LiquidityRemoved","inputs":[{"name":"provider","type":"address","indexed":true,"internalType":"address"},{"name":"amountA","type":"uint256","indexed":false,"internalType":"uint256"},{"name":"amountB","type":"uint256","indexed":false,"internalType":"uint256"},{"name":"liquidity","type":"uint256","indexed":false,"internalType":"uint256"}],"anonymous":false},{"type":"event","name":"OwnershipTransferred","inputs":[{"name":"previousOwner","type":"address","indexed":true,"internalType":"address"},{"name":"newOwner","type":"address","indexed":true,"internalType":"address"}],"anonymous":false},{"type":"event","name":"Swap","inputs":[{"name":"user","type":"address","indexed":true,"internalType":"address"},{"name":"fromToken","type":"address","indexed":true,"internalType":"address"},{"name":"toToken","type":"address","indexed":true,"internalType":"address"},{"name":"amountIn","type":"uint256","indexed":false,"internalType":"uint256"},{"name":"amountOut","type":"uint256","indexed":false,"internalType":"uint256"}],"anonymous":false},{"type":"error","name":"OwnableInvalidOwner","inputs":[{"name":"owner","type":"address","internalType":"address"}]},{"type":"error","name":"OwnableUnauthorizedAccount","inputs":[{"name":"account","type":"address","internalType":"address"}]},{"type":"error","name":"SafeERC20FailedOperation","inputs":[{"name":"token","type":"address","internalType":"address"}]}],"bytecode":{"object":"0x608060405234801562000010575f80fd5b506040516200234b3803806200234b8339810160408190526200003391620002ea565b806001600160a01b0381166200006357604051631e4fbdf760e01b81525f60048201526024015b60405180910390fd5b6200006e8162000271565b506001600160a01b038316158015906200009057506001600160a01b03821615155b620000de5760405162461bcd60e51b815260206004820152601c60248201527f414d4d3a20496e76616c696420746f6b656e206164647265737365730000000060448201526064016200005a565b816001600160a01b0316836001600160a01b031603620001415760405162461bcd60e51b815260206004820152601d60248201527f414d4d3a20546f6b656e73206d75737420626520646966666572656e7400000060448201526064016200005a565b600180546001600160a01b038086166001600160a01b031992831617909255600280549285169290911691909117905560405181906200018190620002c0565b60608082526016908201527f414d4d204c69717569646974792050726f766964657200000000000000000000608082015260a060208201819052600690820152650414d4d2d4c560d41b60c08201526001600160a01b03909116604082015260e001604051809103905ff080158015620001fd573d5f803e3d5ffd5b50600380546001600160a01b0319166001600160a01b03929092169182179055604051630554751d60e51b815230600482015263aa8ea3a0906024015f604051808303815f87803b15801562000251575f80fd5b505af115801562000264573d5f803e3d5ffd5b5050505050505062000331565b5f80546001600160a01b038381166001600160a01b0319831681178455604051919092169283917f8be0079c531659141344cd1fd0a4f28419497f9722a3daafe3b4186f6b6457e09190a35050565b610e5a80620014f183390190565b80516001600160a01b0381168114620002e5575f80fd5b919050565b5f805f60608486031215620002fd575f80fd5b6200030884620002ce565b92506200031860208501620002ce565b91506200032860408501620002ce565b90509250925092565b6111b2806200033f5f395ff3fe608060405234801561000f575f80fd5b50600436106100fb575f3560e01c8063715018a611610093578063c57981b511610063578063c57981b51461021c578063d73792a914610224578063dc5fa6c51461022d578063f2fde38b14610236575f80fd5b8063715018a6146101c1578063857620e1146101cb5780638da5cb5b146101de578063aebf3e41146101ee575f80fd5b8063553a1db7116100ce578063553a1db7146101755780635938c86b146101885780635f64b55b1461019b5780635fcbd285146101ae575f80fd5b8063054d50d4146100ff5780630902f1ac146101255780630fc63d101461014157806319e36f3b1461016c575b5f80fd5b61011261010d366004610ffe565b610249565b6040519081526020015b60405180910390f35b6004546005545b6040805192835260208301919091520161011c565b600154610154906001600160a01b031681565b6040516001600160a01b03909116815260200161011c565b61011260055481565b610112610183366004611027565b610322565b610112610196366004611027565b610458565b600254610154906001600160a01b031681565b600354610154906001600160a01b031681565b6101c9610584565b005b61012c6101d9366004610ffe565b610597565b5f546001600160a01b0316610154565b6102016101fc366004611047565b61090e565b6040805193845260208401929092529082015260600161011c565b610112601e81565b61011261271081565b61011260045481565b6101c9610244366004611076565b610d2b565b5f8084116102725760405162461bcd60e51b81526004016102699061109c565b60405180910390fd5b5f8311801561028057505f82115b6102cc5760405162461bcd60e51b815260206004820152601b60248201527f414d4d3a20496e73756666696369656e74206c697175696469747900000000006044820152606401610269565b5f6127106102db601e826110f5565b6102e59087611108565b6102ef919061111f565b90505f6102fc8483611108565b90505f610309838761113e565b9050610315818361111f565b93505050505b9392505050565b5f8083116103425760405162461bcd60e51b81526004016102699061109c565b61035183600454600554610249565b9050818110156103a35760405162461bcd60e51b815260206004820152601f60248201527f414d4d3a20496e73756666696369656e74206f757470757420616d6f756e74006044820152606401610269565b6001546103bb906001600160a01b0316333086610d68565b8260045f8282546103cc919061113e565b925050819055508060055f8282546103e491906110f5565b9091555050600254610400906001600160a01b03163383610da4565b60025460015460408051868152602081018590526001600160a01b03938416939092169133917fcd3829a3813dc3cdd188fd3d01dcf3268c16be2fdd2dd21d0665418816e4606291015b60405180910390a492915050565b5f8083116104785760405162461bcd60e51b81526004016102699061109c565b61048783600554600454610249565b9050818110156104d95760405162461bcd60e51b815260206004820152601f60248201527f414d4d3a20496e73756666696369656e74206f757470757420616d6f756e74006044820152606401610269565b6002546104f1906001600160a01b0316333086610d68565b8260055f828254610502919061113e565b925050819055508060045f82825461051a91906110f5565b9091555050600154610536906001600160a01b03163383610da4565b60015460025460408051868152602081018590526001600160a01b03938416939092169133917fcd3829a3813dc3cdd188fd3d01dcf3268c16be2fdd2dd21d0665418816e46062910161044a565b61058c610dde565b6105955f610e0a565b565b5f805f85116105f65760405162461bcd60e51b815260206004820152602560248201527f414d4d3a204c6971756964697479206d75737420626520677265617465722074604482015264068616e20360dc1b6064820152608401610269565b6003546040516370a0823160e01b815233600482015286916001600160a01b0316906370a0823190602401602060405180830381865afa15801561063c573d5f803e3d5ffd5b505050506040513d601f19601f820116820180604052508101906106609190611151565b10156106ae5760405162461bcd60e51b815260206004820152601c60248201527f414d4d3a20496e73756666696369656e74204c502062616c616e6365000000006044820152606401610269565b600354604080516318160ddd60e01b815290515f926001600160a01b0316916318160ddd9160048083019260209291908290030181865afa1580156106f5573d5f803e3d5ffd5b505050506040513d601f19601f820116820180604052508101906107199190611151565b9050806004548761072a9190611108565b610734919061111f565b925080600554876107459190611108565b61074f919061111f565b9150848310156107ac5760405162461bcd60e51b815260206004820152602260248201527f414d4d3a20496e73756666696369656e7420746f6b656e204120726563656976604482015261195960f21b6064820152608401610269565b838210156108075760405162461bcd60e51b815260206004820152602260248201527f414d4d3a20496e73756666696369656e7420746f6b656e204220726563656976604482015261195960f21b6064820152608401610269565b600354604051632770a7eb60e21b8152336004820152602481018890526001600160a01b0390911690639dc29fac906044015f604051808303815f87803b158015610850575f80fd5b505af1158015610862573d5f803e3d5ffd5b505050508260045f82825461087791906110f5565b925050819055508160055f82825461088f91906110f5565b90915550506001546108ab906001600160a01b03163385610da4565b6002546108c2906001600160a01b03163384610da4565b604080518481526020810184905290810187905233907f1dc8bb69df2b8e91fbdcbfcf93d951b3f0000f085a95fe3f7946d6161439245d9060600160405180910390a250935093915050565b5f805f808711801561091f57505f86115b6109775760405162461bcd60e51b815260206004820152602360248201527f414d4d3a20416d6f756e7473206d75737420626520677265617465722074686160448201526206e20360ec1b6064820152608401610269565b60015461098f906001600160a01b031633308a610d68565b6002546109a7906001600160a01b0316333089610d68565b600354604080516318160ddd60e01b815290515f926001600160a01b0316916318160ddd9160048083019260209291908290030181865afa1580156109ee573d5f803e3d5ffd5b505050506040513d601f19601f82011682018060405250810190610a129190611151565b90505f600454118015610a2657505f600554115b15610b87575f6004546005548a610a3d9190611108565b610a47919061111f565b9050878111610aab5785811015610aa05760405162461bcd60e51b815260206004820152601960248201527f414d4d3a20496e73756666696369656e7420746f6b656e2042000000000000006044820152606401610269565b809350889450610b2f565b5f6005546004548a610abd9190611108565b610ac7919061111f565b905089811115610ad957610ad9611168565b87811015610b295760405162461bcd60e51b815260206004820152601960248201527f414d4d3a20496e73756666696369656e7420746f6b656e2041000000000000006044820152606401610269565b94508793505b84891115610b5857610b5833610b45878c6110f5565b6001546001600160a01b03169190610da4565b83881115610b8157610b8133610b6e868b6110f5565b6002546001600160a01b03169190610da4565b50610bf3565b87935086925085841080610b9a57508483105b15610bf35760405162461bcd60e51b815260206004820152602360248201527f414d4d3a20496e73756666696369656e74206c697175696469747920616d6f756044820152626e747360e81b6064820152608401610269565b8360045f828254610c04919061113e565b925050819055508260055f828254610c1c919061113e565b90915550610c2d9050848483610e59565b91505f8211610c7e5760405162461bcd60e51b815260206004820152601d60248201527f414d4d3a20496e76616c6964206c6971756964697479206d696e7465640000006044820152606401610269565b6003546040516340c10f1960e01b8152336004820152602481018490526001600160a01b03909116906340c10f19906044015f604051808303815f87803b158015610cc7575f80fd5b505af1158015610cd9573d5f803e3d5ffd5b505060408051878152602081018790529081018590523392507f64b83944e79c3ce8d4c297411de637c3e102d064677aac0c163976ebdcd6f50e915060600160405180910390a2509450945094915050565b610d33610dde565b6001600160a01b038116610d5c57604051631e4fbdf760e01b81525f6004820152602401610269565b610d6581610e0a565b50565b610d76848484846001610eb9565b610d9e57604051635274afe760e01b81526001600160a01b0385166004820152602401610269565b50505050565b610db18383836001610f26565b610dd957604051635274afe760e01b81526001600160a01b0384166004820152602401610269565b505050565b5f546001600160a01b031633146105955760405163118cdaa760e01b8152336004820152602401610269565b5f80546001600160a01b038381166001600160a01b0319831681178455604051919092169283917f8be0079c531659141344cd1fd0a4f28419497f9722a3daafe3b4186f6b6457e09190a35050565b5f815f03610e7a57610e73610e6e8486611108565b610f88565b905061031b565b600454610eb190610e8b8487611108565b610e95919061111f565b600554610ea28587611108565b610eac919061111f565b610fe5565b949350505050565b6040516323b872dd60e01b5f8181526001600160a01b038781166004528616602452604485905291602083606481808c5af1925060015f51148316610f15578383151615610f09573d5f823e3d81fd5b5f883b113d1516831692505b604052505f60605295945050505050565b60405163a9059cbb60e01b5f8181526001600160a01b038616600452602485905291602083604481808b5af1925060015f51148316610f7c578383151615610f70573d5f823e3d81fd5b5f873b113d1516831692505b60405250949350505050565b5f815f03610f9757505f919050565b5f6002610fa584600161113e565b610faf919061111f565b9050825b8082101561031b575080600281610fca818761111f565b610fd4919061113e565b610fde919061111f565b9150610fb3565b5f818310610ff35781610ff5565b825b90505b92915050565b5f805f60608486031215611010575f80fd5b505081359360208301359350604090920135919050565b5f8060408385031215611038575f80fd5b50508035926020909101359150565b5f805f806080858703121561105a575f80fd5b5050823594602084013594506040840135936060013592509050565b5f60208284031215611086575f80fd5b81356001600160a01b038116811461031b575f80fd5b60208082526025908201527f414d4d3a20416d6f756e7420696e206d75737420626520677265617465722074604082015264068616e20360dc1b606082015260800190565b634e487b7160e01b5f52601160045260245ffd5b81810381811115610ff857610ff86110e1565b8082028115828204841417610ff857610ff86110e1565b5f8261113957634e487b7160e01b5f52601260045260245ffd5b500490565b80820180821115610ff857610ff86110e1565b5f60208284031215611161575f80fd5b5051919050565b634e487b7160e01b5f52600160045260245ffdfea2646970667358221220b4341dd5b5305246dbe416471ce49efa4629c319a1b47941ac47954eaede3e0264736f6c63430008140033608060405234801562000010575f80fd5b5060405162000e5a38038062000e5a8339810160408190526200003391620001a8565b8083836003620000448382620002bb565b506004620000538282620002bb565b5050506001600160a01b0381166200008457604051631e4fbdf760e01b81525f600482015260240160405180910390fd5b6200008f8162000099565b5050505062000383565b600580546001600160a01b038381166001600160a01b0319831681179093556040519116919082907f8be0079c531659141344cd1fd0a4f28419497f9722a3daafe3b4186f6b6457e0905f90a35050565b634e487b7160e01b5f52604160045260245ffd5b5f82601f8301126200010e575f80fd5b81516001600160401b03808211156200012b576200012b620000ea565b604051601f8301601f19908116603f01168101908282118183101715620001565762000156620000ea565b8160405283815260209250868385880101111562000172575f80fd5b5f91505b8382101562000195578582018301518183018401529082019062000176565b5f93810190920192909252949350505050565b5f805f60608486031215620001bb575f80fd5b83516001600160401b0380821115620001d2575f80fd5b620001e087838801620000fe565b94506020860151915080821115620001f6575f80fd5b506200020586828701620000fe565b604086015190935090506001600160a01b038116811462000224575f80fd5b809150509250925092565b600181811c908216806200024457607f821691505b6020821081036200026357634e487b7160e01b5f52602260045260245ffd5b50919050565b601f821115620002b6575f81815260208120601f850160051c81016020861015620002915750805b601f850160051c820191505b81811015620002b2578281556001016200029d565b5050505b505050565b81516001600160401b03811115620002d757620002d7620000ea565b620002ef81620002e884546200022f565b8462000269565b602080601f83116001811462000325575f84156200030d5750858301515b5f19600386901b1c1916600185901b178555620002b2565b5f85815260208120601f198616915b82811015620003555788860151825594840194600190910190840162000334565b50858210156200037357878501515f19600388901b60f8161c191681555b5050505050600190811b01905550565b610ac980620003915f395ff3fe608060405234801561000f575f80fd5b50600436106100fb575f3560e01c8063715018a611610093578063a9059cbb11610063578063a9059cbb14610210578063aa8ea3a014610223578063dd62ed3e14610236578063f2fde38b1461026e575f80fd5b8063715018a6146101dc5780638da5cb5b146101e457806395d89b41146101f55780639dc29fac146101fd575f80fd5b80632a943945116100ce5780632a94394514610165578063313ce5671461019057806340c10f191461019f57806370a08231146101b4575f80fd5b806306fdde03146100ff578063095ea7b31461011d57806318160ddd1461014057806323b872dd14610152575b5f80fd5b610107610281565b6040516101149190610924565b60405180910390f35b61013061012b36600461098a565b610311565b6040519015158152602001610114565b6002545b604051908152602001610114565b6101306101603660046109b2565b61032a565b600654610178906001600160a01b031681565b6040516001600160a01b039091168152602001610114565b60405160128152602001610114565b6101b26101ad36600461098a565b61034d565b005b6101446101c23660046109eb565b6001600160a01b03165f9081526020819052604090205490565b6101b26103ba565b6005546001600160a01b0316610178565b6101076103cd565b6101b261020b36600461098a565b6103dc565b61013061021e36600461098a565b610440565b6101b26102313660046109eb565b61044d565b610144610244366004610a0b565b6001600160a01b039182165f90815260016020908152604080832093909416825291909152205490565b6101b261027c3660046109eb565b61051e565b60606003805461029090610a3c565b80601f01602080910402602001604051908101604052809291908181526020018280546102bc90610a3c565b80156103075780601f106102de57610100808354040283529160200191610307565b820191905f5260205f20905b8154815290600101906020018083116102ea57829003601f168201915b5050505050905090565b5f3361031e81858561055b565b60019150505b92915050565b5f3361033785828561056d565b6103428585856105e9565b506001949350505050565b6006546001600160a01b031633146103ac5760405162461bcd60e51b815260206004820152601f60248201527f4c50546f6b656e3a204f6e6c7920414d4d2063616e206d696e742f6275726e0060448201526064015b60405180910390fd5b6103b68282610646565b5050565b6103c261067a565b6103cb5f6106a7565b565b60606004805461029090610a3c565b6006546001600160a01b031633146104365760405162461bcd60e51b815260206004820152601f60248201527f4c50546f6b656e3a204f6e6c7920414d4d2063616e206d696e742f6275726e0060448201526064016103a3565b6103b682826106f8565b5f3361031e8185856105e9565b6001600160a01b0381166104a35760405162461bcd60e51b815260206004820152601c60248201527f4c50546f6b656e3a20496e76616c696420414d4d20616464726573730000000060448201526064016103a3565b6006546001600160a01b0316156104fc5760405162461bcd60e51b815260206004820152601860248201527f4c50546f6b656e3a20414d4d20616c726561647920736574000000000000000060448201526064016103a3565b600680546001600160a01b0319166001600160a01b0392909216919091179055565b61052661067a565b6001600160a01b03811661054f57604051631e4fbdf760e01b81525f60048201526024016103a3565b610558816106a7565b50565b610568838383600161072c565b505050565b6001600160a01b038381165f908152600160209081526040808320938616835292905220545f198110156105e357818110156105d557604051637dc7a0d960e11b81526001600160a01b038416600482015260248101829052604481018390526064016103a3565b6105e384848484035f61072c565b50505050565b6001600160a01b03831661061257604051634b637e8f60e11b81525f60048201526024016103a3565b6001600160a01b03821661063b5760405163ec442f0560e01b81525f60048201526024016103a3565b6105688383836107fe565b6001600160a01b03821661066f5760405163ec442f0560e01b81525f60048201526024016103a3565b6103b65f83836107fe565b6005546001600160a01b031633146103cb5760405163118cdaa760e01b81523360048201526024016103a3565b600580546001600160a01b038381166001600160a01b0319831681179093556040519116919082907f8be0079c531659141344cd1fd0a4f28419497f9722a3daafe3b4186f6b6457e0905f90a35050565b6001600160a01b03821661072157604051634b637e8f60e11b81525f60048201526024016103a3565b6103b6825f836107fe565b6001600160a01b0384166107555760405163e602df0560e01b81525f60048201526024016103a3565b6001600160a01b03831661077e57604051634a1406b160e11b81525f60048201526024016103a3565b6001600160a01b038085165f90815260016020908152604080832093871683529290522082905580156105e357826001600160a01b0316846001600160a01b03167f8c5be1e5ebec7d5bd14f71427d1e84f3dd0314c0f7b2291e5b200ac8c7c3b925846040516107f091815260200190565b60405180910390a350505050565b6001600160a01b038316610828578060025f82825461081d9190610a74565b909155506108989050565b6001600160a01b0383165f908152602081905260409020548181101561087a5760405163391434e360e21b81526001600160a01b038516600482015260248101829052604481018390526064016103a3565b6001600160a01b0384165f9081526020819052604090209082900390555b6001600160a01b0382166108b4576002805482900390556108d2565b6001600160a01b0382165f9081526020819052604090208054820190555b816001600160a01b0316836001600160a01b03167fddf252ad1be2c89b69c2b068fc378daa952ba7f163c4a11628f55a4df523b3ef8360405161091791815260200190565b60405180910390a3505050565b5f6020808352835180828501525f5b8181101561094f57858101830151858201604001528201610933565b505f604082860101526040601f19601f8301168501019250505092915050565b80356001600160a01b0381168114610985575f80fd5b919050565b5f806040838503121561099b575f80fd5b6109a48361096f565b946020939093013593505050565b5f805f606084860312156109c4575f80fd5b6109cd8461096f565b92506109db6020850161096f565b9150604084013590509250925092565b5f602082840312156109fb575f80fd5b610a048261096f565b9392505050565b5f8060408385031215610a1c575f80fd5b610a258361096f565b9150610a336020840161096f565b90509250929050565b600181811c90821680610a5057607f821691505b602082108103610a6e57634e487b7160e01b5f52602260045260245ffd5b50919050565b8082018082111561032457634e487b7160e01b5f52601160045260245ffdfea2646970667358221220b481c72e330a8e4d783ed6e8adc4c85d71a8a81c9433c56c91044df9dfe8abbb64736f6c63430008140033","linkReferences":{}},"methodIdentifiers":{"FEE()":"c57981b5","FEE_DENOMINATOR()":"d73792a9","addLiquidity(uint256,uint256,uint256,uint256)":"aebf3e41","getAmountOut(uint256,uint256,uint256)":"054d50d4","getReserves()":"0902f1ac","lpToken()":"5fcbd285","owner()":"8da5cb5b","removeLiquidity(uint256,uint256,uint256)":"857620e1","renounceOwnership()":"715018a6","reserveA()":"dc5fa6c5","reserveB()":"19e36f3b","swapAForB(uint256,uint256)":"553a1db7","swapBForA(uint256,uint256)":"5938c86b","tokenA()":"0fc63d10","tokenB()":"5f64b55b","transferOwnership(address)":"f2fde38b"},"id":31}