{"abi":[{"type":"constructor","inputs":[{"name":"name_","type":"string","internalType":"string"},{"name":"symbol_","type":"string","internalType":"string"},{"name":"decimals_","type":"uint8","internalType":"uint8"},{"name":"initialSupply","type":"uint256","internalType":"uint256"},{"name":"initialOwner","type":"address","internalType":"address"}],"stateMutability":"nonpayable"},{"type":"function","name":"allowance","inputs":[{"name":"owner","type":"address","internalType":"address"},{"name":"spender","type":"address","internalType":"address"}],"outputs":[{"name":"","type":"uint256","internalType":"uint256"}],"stateMutability":"view"},{"type":"function","name":"approve","inputs":[{"name":"spender","type":"address","internalType":"address"},{"name":"value","type":"uint256","internalType":"uint256"}],"outputs":[{"name":"","type":"bool","internalType":"bool"}],"stateMutability":"nonpayable"},{"type":"function","name":"balanceOf","inputs":[{"name":"account","type":"address","internalType":"address"}],"outputs":[{"name":"","type":"uint256","internalType":"uint256"}],"stateMutability":"view"},{"type":"function","name":"burn","inputs":[{"name":"value","type":"uint256","internalType":"uint256"}],"outputs":[],"stateMutability":"nonpayable"},{"type":"function","name":"burn","inputs":[{"name":"account","type":"address","internalType":"address"},{"name":"amount","type":"uint256","internalType":"uint256"}],"outputs":[],"stateMutability":"nonpayable"},{"type":"function","name":"burnFrom","inputs":[{"name":"account","type":"address","internalType":"address"},{"name":"value","type":"uint256","internalType":"uint256"}],"outputs":[],"stateMutability":"nonpayable"},{"type":"function","name":"decimals","inputs":[],"outputs":[{"name":"","type":"uint8","internalType":"uint8"}],"stateMutability":"view"},{"type":"function","name":"mint","inputs":[{"name":"to","type":"address","internalType":"address"},{"name":"amount","type":"uint256","internalType":"uint256"}],"outputs":[],"stateMutability":"nonpayable"},{"type":"function","name":"name","inputs":[],"outputs":[{"name":"","type":"string","internalType":"string"}],"stateMutability":"view"},{"type":"function","name":"owner","inputs":[],"outputs":[{"name":"","type":"address","internalType":"address"}],"stateMutability":"view"},{"type":"function","name":"renounceOwnership","inputs":[],"outputs":[],"stateMutability":"nonpayable"},{"type":"function","name":"symbol","inputs":[],"outputs":[{"name":"","type":"string","internalType":"string"}],"stateMutability":"view"},{"type":"function","name":"totalSupply","inputs":[],"outputs":[{"name":"","type":"uint256","internalType":"uint256"}],"stateMutability":"view"},{"type":"function","name":"transfer","inputs":[{"name":"to","type":"address","internalType":"address"},{"name":"value","type":"uint256","internalType":"uint256"}],"outputs":[{"name":"","type":"bool","internalType":"bool"}],"stateMutability":"nonpayable"},{"type":"function","name":"transferFrom","inputs":[{"name":"from","type":"address","internalType":"address"},{"name":"to","type":"address","internalType":"address"},{"name":"value","type":"uint256","internalType":"uint256"}],"outputs":[{"name":"","type":"bool","internalType":"bool"}],"stateMutability":"nonpayable"},{"type":"function","name":"transferOwnership","inputs":[{"name":"newOwner","type":"address","internalType":"address"}],"outputs":[],"stateMutability":"nonpayable"},{"type":"event","name":"Approval","inputs":[{"name":"owner","type":"address","indexed":true,"internalType":"address"},{"name":"spender","type":"address","indexed":true,"internalType":"address"},{"name":"value","type":"uint256","indexed":false,"internalType":"uint256"}],"anonymous":false},{"type":"event","name":"OwnershipTransferred","inputs":[{"name":"previousOwner","type":"address","indexed":true,"internalType":"address"},{"name":"newOwner","type":"address","indexed":true,"internalType":"address"}],"anonymous":false},{"type":"event","name":"Transfer","inputs":[{"name":"from","type":"address","indexed":true,"internalType":"address"},{"name":"to","type":"address","indexed":true,"internalType":"address"},{"name":"value","type":"uint256","indexed":false,"internalType":"uint256"}],"anonymous":false},{"type":"error","name":"ERC20InsufficientAllowance","inputs":[{"name":"spender","type":"address","internalType":"address"},{"name":"allowance","type":"uint256","internalType":"uint256"},{"name":"needed","type":"uint256","internalType":"uint256"}]},{"type":"error","name":"ERC20InsufficientBalance","inputs":[{"name":"sender","type":"address","internalType":"address"},{"name":"balance","type":"uint256","internalType":"uint256"},{"name":"needed","type":"uint256","internalType":"uint256"}]},{"type":"error","name":"ERC20InvalidApprover","inputs":[{"name":"approver","type":"address","internalType":"address"}]},{"type":"error","name":"ERC20InvalidReceiver","inputs":[{"name":"receiver","type":"address","internalType":"address"}]},{"type":"error","name":"ERC20InvalidSender","inputs":[{"name":"sender","type":"address","internalType":"address"}]},{"type":"error","name":"ERC20InvalidSpender","inputs":[{"name":"spender","type":"address","internalType":"address"}]},{"type":"error","name":"OwnableInvalidOwner","inputs":[{"name":"owner","type":"address","internalType":"address"}]},{"type":"error","name":"OwnableUnauthorizedAccount","inputs":[{"name":"account","type":"address","internalType":"address"}]}],"bytecode":{"object":"0x608060405234801562000010575f80fd5b506040516200103b3803806200103b833981016040819052620000339162000359565b80858560036200004483826200048d565b5060046200005382826200048d565b5050506001600160a01b0381166200008557604051631e4fbdf760e01b81525f60048201526024015b60405180910390fd5b6200009081620000df565b506005805460ff60a01b1916600160a01b60ff8616021790558115620000d457620000d481620000c285600a62000664565b620000ce90856200067b565b62000130565b5050505050620006ab565b600580546001600160a01b038381166001600160a01b0319831681179093556040519116919082907f8be0079c531659141344cd1fd0a4f28419497f9722a3daafe3b4186f6b6457e0905f90a35050565b6001600160a01b0382166200015b5760405163ec442f0560e01b81525f60048201526024016200007c565b620001685f83836200016c565b5050565b6001600160a01b0383166200019a578060025f8282546200018e919062000695565b909155506200020c9050565b6001600160a01b0383165f9081526020819052604090205481811015620001ee5760405163391434e360e21b81526001600160a01b038516600482015260248101829052604481018390526064016200007c565b6001600160a01b0384165f9081526020819052604090209082900390555b6001600160a01b0382166200022a5760028054829003905562000248565b6001600160a01b0382165f9081526020819052604090208054820190555b816001600160a01b0316836001600160a01b03167fddf252ad1be2c89b69c2b068fc378daa952ba7f163c4a11628f55a4df523b3ef836040516200028e91815260200190565b60405180910390a3505050565b634e487b7160e01b5f52604160045260245ffd5b5f82601f830112620002bf575f80fd5b81516001600160401b0380821115620002dc57620002dc6200029b565b604051601f8301601f19908116603f011681019082821181831017156200030757620003076200029b565b8160405283815260209250868385880101111562000323575f80fd5b5f91505b8382101562000346578582018301518183018401529082019062000327565b5f93810190920192909252949350505050565b5f805f805f60a086880312156200036e575f80fd5b85516001600160401b038082111562000385575f80fd5b6200039389838a01620002af565b96506020880151915080821115620003a9575f80fd5b50620003b888828901620002af565b945050604086015160ff81168114620003cf575f80fd5b6060870151608088015191945092506001600160a01b0381168114620003f3575f80fd5b809150509295509295909350565b600181811c908216806200041657607f821691505b6020821081036200043557634e487b7160e01b5f52602260045260245ffd5b50919050565b601f82111562000488575f81815260208120601f850160051c81016020861015620004635750805b601f850160051c820191505b8181101562000484578281556001016200046f565b5050505b505050565b81516001600160401b03811115620004a957620004a96200029b565b620004c181620004ba845462000401565b846200043b565b602080601f831160018114620004f7575f8415620004df5750858301515b5f19600386901b1c1916600185901b17855562000484565b5f85815260208120601f198616915b82811015620005275788860151825594840194600190910190840162000506565b50858210156200054557878501515f19600388901b60f8161c191681555b5050505050600190811b01905550565b634e487b7160e01b5f52601160045260245ffd5b600181815b80851115620005a957815f19048211156200058d576200058d62000555565b808516156200059b57918102915b93841c93908002906200056e565b509250929050565b5f82620005c1575060016200065e565b81620005cf57505f6200065e565b8160018114620005e85760028114620005f35762000613565b60019150506200065e565b60ff84111562000607576200060762000555565b50506001821b6200065e565b5060208310610133831016604e8410600b841016171562000638575081810a6200065e565b62000644838362000569565b805f19048211156200065a576200065a62000555565b0290505b92915050565b5f6200067460ff841683620005b1565b9392505050565b80820281158282048414176200065e576200065e62000555565b808201808211156200065e576200065e62000555565b61098280620006b95f395ff3fe608060405234801561000f575f80fd5b50600436106100fb575f3560e01c8063715018a6116100935780639dc29fac116100635780639dc29fac14610212578063a9059cbb14610225578063dd62ed3e14610238578063f2fde38b14610270575f80fd5b8063715018a6146101d457806379cc6790146101dc5780638da5cb5b146101ef57806395d89b411461020a575f80fd5b8063313ce567116100ce578063313ce5671461016557806340c10f191461018457806342966c681461019957806370a08231146101ac575f80fd5b806306fdde03146100ff578063095ea7b31461011d57806318160ddd1461014057806323b872dd14610152575b5f80fd5b610107610283565b60405161011491906107c6565b60405180910390f35b61013061012b36600461082c565b610313565b6040519015158152602001610114565b6002545b604051908152602001610114565b610130610160366004610854565b61032c565b600554600160a01b900460ff1660405160ff9091168152602001610114565b61019761019236600461082c565b61034f565b005b6101976101a736600461088d565b610365565b6101446101ba3660046108a4565b6001600160a01b03165f9081526020819052604090205490565b610197610372565b6101976101ea36600461082c565b610385565b6005546040516001600160a01b039091168152602001610114565b61010761039a565b61019761022036600461082c565b6103a9565b61013061023336600461082c565b6103b1565b6101446102463660046108c4565b6001600160a01b039182165f90815260016020908152604080832093909416825291909152205490565b61019761027e3660046108a4565b6103be565b606060038054610292906108f5565b80601f01602080910402602001604051908101604052809291908181526020018280546102be906108f5565b80156103095780601f106102e057610100808354040283529160200191610309565b820191905f5260205f20905b8154815290600101906020018083116102ec57829003601f168201915b5050505050905090565b5f336103208185856103fd565b60019150505b92915050565b5f3361033985828561040f565b61034485858561048b565b506001949350505050565b6103576104e8565b6103618282610515565b5050565b61036f3382610549565b50565b61037a6104e8565b6103835f61057d565b565b61039082338361040f565b6103618282610549565b606060048054610292906108f5565b6103906104e8565b5f3361032081858561048b565b6103c66104e8565b6001600160a01b0381166103f457604051631e4fbdf760e01b81525f60048201526024015b60405180910390fd5b61036f8161057d565b61040a83838360016105ce565b505050565b6001600160a01b038381165f908152600160209081526040808320938616835292905220545f19811015610485578181101561047757604051637dc7a0d960e11b81526001600160a01b038416600482015260248101829052604481018390526064016103eb565b61048584848484035f6105ce565b50505050565b6001600160a01b0383166104b457604051634b637e8f60e11b81525f60048201526024016103eb565b6001600160a01b0382166104dd5760405163ec442f0560e01b81525f60048201526024016103eb565b61040a8383836106a0565b6005546001600160a01b031633146103835760405163118cdaa760e01b81523360048201526024016103eb565b6001600160a01b03821661053e5760405163ec442f0560e01b81525f60048201526024016103eb565b6103615f83836106a0565b6001600160a01b03821661057257604051634b637e8f60e11b81525f60048201526024016103eb565b610361825f836106a0565b600580546001600160a01b038381166001600160a01b0319831681179093556040519116919082907f8be0079c531659141344cd1fd0a4f28419497f9722a3daafe3b4186f6b6457e0905f90a35050565b6001600160a01b0384166105f75760405163e602df0560e01b81525f60048201526024016103eb565b6001600160a01b03831661062057604051634a1406b160e11b81525f60048201526024016103eb565b6001600160a01b038085165f908152600160209081526040808320938716835292905220829055801561048557826001600160a01b0316846001600160a01b03167f8c5be1e5ebec7d5bd14f71427d1e84f3dd0314c0f7b2291e5b200ac8c7c3b9258460405161069291815260200190565b60405180910390a350505050565b6001600160a01b0383166106ca578060025f8282546106bf919061092d565b9091555061073a9050565b6001600160a01b0383165f908152602081905260409020548181101561071c5760405163391434e360e21b81526001600160a01b038516600482015260248101829052604481018390526064016103eb565b6001600160a01b0384165f9081526020819052604090209082900390555b6001600160a01b03821661075657600280548290039055610774565b6001600160a01b0382165f9081526020819052604090208054820190555b816001600160a01b0316836001600160a01b03167fddf252ad1be2c89b69c2b068fc378daa952ba7f163c4a11628f55a4df523b3ef836040516107b991815260200190565b60405180910390a3505050565b5f6020808352835180828501525f5b818110156107f1578581018301518582016040015282016107d5565b505f604082860101526040601f19601f8301168501019250505092915050565b80356001600160a01b0381168114610827575f80fd5b919050565b5f806040838503121561083d575f80fd5b61084683610811565b946020939093013593505050565b5f805f60608486031215610866575f80fd5b61086f84610811565b925061087d60208501610811565b9150604084013590509250925092565b5f6020828403121561089d575f80fd5b5035919050565b5f602082840312156108b4575f80fd5b6108bd82610811565b9392505050565b5f80604083850312156108d5575f80fd5b6108de83610811565b91506108ec60208401610811565b90509250929050565b600181811c9082168061090957607f821691505b60208210810361092757634e487b7160e01b5f52602260045260245ffd5b50919050565b8082018082111561032657634e487b7160e01b5f52601160045260245ffdfea2646970667358221220f8f5ab3a595989c1c9412b4bf2623a28af66348062feabc9048936249414e6e864736f6c63430008140033","linkReferences":{}},"methodIdentifiers":{"allowance(address,address)":"dd62ed3e","approve(address,uint256)":"095ea7b3","balanceOf(address)":"70a08231","burn(address,uint256)":"9dc29fac","burn(uint256)":"42966c68","burnFrom(address,uint256)":"79cc6790","decimals()":"313ce567","mint(address,uint256)":"40c10f19","name()":"06fdde03","owner()":"8da5cb5b","renounceOwnership()":"715018a6","symbol()":"95d89b41","totalSupply()":"18160ddd","transfer(address,uint256)":"a9059cbb","transferFrom(address,address,uint256)":"23b872dd","transferOwnership(address)":"f2fde38b"},"id":33}