{"abi":[{"type":"constructor","inputs":[{"name":"_tokenA","type":"address","internalType":"address"},{"name":"_tokenB","type":"address","internalType":"address"}],"stateMutability":"nonpayable"},{"type":"function","name":"FEE","inputs":[],"outputs":[{"name":"","type":"uint256","internalType":"uint256"}],"stateMutability":"view"},{"type":"function","name":"FEE_DENOMINATOR","inputs":[],"outputs":[{"name":"","type":"uint256","internalType":"uint256"}],"stateMutability":"view"},{"type":"function","name":"addLiquidity","inputs":[{"name":"amountA","type":"uint256","internalType":"uint256"},{"name":"amountB","type":"uint256","internalType":"uint256"}],"outputs":[],"stateMutability":"nonpayable"},{"type":"function","name":"getAmountOut","inputs":[{"name":"amountIn","type":"uint256","internalType":"uint256"},{"name":"reserveIn","type":"uint256","internalType":"uint256"},{"name":"reserveOut","type":"uint256","internalType":"uint256"}],"outputs":[{"name":"","type":"uint256","internalType":"uint256"}],"stateMutability":"pure"},{"type":"function","name":"getK","inputs":[],"outputs":[{"name":"","type":"uint256","internalType":"uint256"}],"stateMutability":"view"},{"type":"function","name":"getPriceA","inputs":[],"outputs":[{"name":"","type":"uint256","internalType":"uint256"}],"stateMutability":"view"},{"type":"function","name":"getPriceB","inputs":[],"outputs":[{"name":"","type":"uint256","internalType":"uint256"}],"stateMutability":"view"},{"type":"function","name":"lpToken","inputs":[],"outputs":[{"name":"","type":"address","internalType":"contract LPToken"}],"stateMutability":"view"},{"type":"function","name":"removeLiquidity","inputs":[{"name":"liquidity","type":"uint256","internalType":"uint256"},{"name":"minAmountA","type":"uint256","internalType":"uint256"},{"name":"minAmountB","type":"uint256","internalType":"uint256"}],"outputs":[],"stateMutability":"nonpayable"},{"type":"function","name":"reserveA","inputs":[],"outputs":[{"name":"","type":"uint256","internalType":"uint256"}],"stateMutability":"view"},{"type":"function","name":"reserveB","inputs":[],"outputs":[{"name":"","type":"uint256","internalType":"uint256"}],"stateMutability":"view"},{"type":"function","name":"sqrt","inputs":[{"name":"x","type":"uint256","internalType":"uint256"}],"outputs":[{"name":"","type":"uint256","internalType":"uint256"}],"stateMutability":"pure"},{"type":"function","name":"swapAForB","inputs":[{"name":"amountIn","type":"uint256","internalType":"uint256"},{"name":"minAmountOut","type":"uint256","internalType":"uint256"}],"outputs":[{"name":"amountOut","type":"uint256","internalType":"uint256"}],"stateMutability":"nonpayable"},{"type":"function","name":"swapBForA","inputs":[{"name":"amountIn","type":"uint256","internalType":"uint256"},{"name":"minAmountOut","type":"uint256","internalType":"uint256"}],"outputs":[{"name":"amountOut","type":"uint256","internalType":"uint256"}],"stateMutability":"nonpayable"},{"type":"function","name":"tokenA","inputs":[],"outputs":[{"name":"","type":"address","internalType":"contract IERC20"}],"stateMutability":"view"},{"type":"function","name":"tokenB","inputs":[],"outputs":[{"name":"","type":"address","internalType":"contract IERC20"}],"stateMutability":"view"},{"type":"event","name":"LiquidityAdded","inputs":[{"name":"provider","type":"address","indexed":true,"internalType":"address"},{"name":"amountA","type":"uint256","indexed":false,"internalType":"uint256"},{"name":"amountB","type":"uint256","indexed":false,"internalType":"uint256"},{"name":"liquidity","type":"uint256","indexed":false,"internalType":"uint256"}],"anonymous":false},{"type":"event","name":"LiquidityRemoved","inputs":[{"name":"provider","type":"address","indexed":true,"internalType":"address"},{"name":"amountA","type":"uint256","indexed":false,"internalType":"uint256"},{"name":"amountB","type":"uint256","indexed":false,"internalType":"uint256"},{"name":"liquidity","type":"uint256","indexed":false,"internalType":"uint256"}],"anonymous":false},{"type":"event","name":"Swap","inputs":[{"name":"trader","type":"address","indexed":true,"internalType":"address"},{"name":"inputToken","type":"address","indexed":true,"internalType":"address"},{"name":"amountIn","type":"uint256","indexed":false,"internalType":"uint256"},{"name":"amountOut","type":"uint256","indexed":false,"internalType":"uint256"},{"name":"outputToken","type":"address","indexed":true,"internalType":"address"}],"anonymous":false}],"bytecode":{"object":"0x6080604052600160055534801562000015575f80fd5b50604051620042b7380380620042b783398181016040528101906200003b9190620002b9565b8073ffffffffffffffffffffffffffffffffffffffff168273ffffffffffffffffffffffffffffffffffffffff1603620000ac576040517f08c379a0000000000000000000000000000000000000000000000000000000008152600401620000a3906200035c565b60405180910390fd5b5f73ffffffffffffffffffffffffffffffffffffffff168273ffffffffffffffffffffffffffffffffffffffff16141580156200011557505f73ffffffffffffffffffffffffffffffffffffffff168173ffffffffffffffffffffffffffffffffffffffff1614155b62000157576040517f08c379a00000000000000000000000000000000000000000000000000000000081526004016200014e90620003ca565b60405180910390fd5b8160015f6101000a81548173ffffffffffffffffffffffffffffffffffffffff021916908373ffffffffffffffffffffffffffffffffffffffff1602179055508060025f6101000a81548173ffffffffffffffffffffffffffffffffffffffff021916908373ffffffffffffffffffffffffffffffffffffffff160217905550604051620001e59062000246565b604051809103905ff080158015620001ff573d5f803e3d5ffd5b505f806101000a81548173ffffffffffffffffffffffffffffffffffffffff021916908373ffffffffffffffffffffffffffffffffffffffff1602179055505050620003ea565b611bc080620026f783390190565b5f80fd5b5f73ffffffffffffffffffffffffffffffffffffffff82169050919050565b5f620002838262000258565b9050919050565b620002958162000277565b8114620002a0575f80fd5b50565b5f81519050620002b3816200028a565b92915050565b5f8060408385031215620002d257620002d162000254565b5b5f620002e185828601620002a3565b9250506020620002f485828601620002a3565b9150509250929050565b5f82825260208201905092915050565b7f546f6b656e73206d75737420626520646966666572656e7400000000000000005f82015250565b5f62000344601883620002fe565b915062000351826200030e565b602082019050919050565b5f6020820190508181035f830152620003758162000336565b9050919050565b7f496e76616c696420746f6b656e206164647265737300000000000000000000005f82015250565b5f620003b2601583620002fe565b9150620003bf826200037c565b602082019050919050565b5f6020820190508181035f830152620003e381620003a4565b9050919050565b6122ff80620003f85f395ff3fe608060405234801561000f575f80fd5b50600436106100fe575f3560e01c8063677342ce11610095578063c57981b511610064578063c57981b5146102ae578063d73792a9146102cc578063dc5fa6c5146102ea578063ee39e7a014610308576100fe565b8063677342ce14610228578063857620e1146102585780639cd441da14610274578063aa0f915b14610290576100fe565b8063553a1db7116100d1578063553a1db71461018c5780635938c86b146101bc5780635f64b55b146101ec5780635fcbd2851461020a576100fe565b8063054d50d4146101025780630fc63d101461013257806319e36f3b146101505780634218128a1461016e575b5f80fd5b61011c60048036038101906101179190611833565b610326565b6040516101299190611892565b60405180910390f35b61013a610416565b6040516101479190611925565b60405180910390f35b61015861043b565b6040516101659190611892565b60405180910390f35b610176610441565b6040516101839190611892565b60405180910390f35b6101a660048036038101906101a1919061193e565b6104ae565b6040516101b39190611892565b60405180910390f35b6101d660048036038101906101d1919061193e565b610876565b6040516101e39190611892565b60405180910390f35b6101f4610c3e565b6040516102019190611925565b60405180910390f35b610212610c63565b60405161021f919061199c565b60405180910390f35b610242600480360381019061023d91906119b5565b610c86565b60405161024f9190611892565b60405180910390f35b610272600480360381019061026d9190611833565b610cf7565b005b61028e6004803603810190610289919061193e565b61127c565b005b610298611768565b6040516102a59190611892565b60405180910390f35b6102b66117d5565b6040516102c39190611892565b60405180910390f35b6102d46117da565b6040516102e19190611892565b60405180910390f35b6102f26117e0565b6040516102ff9190611892565b60405180910390f35b6103106117e6565b60405161031d9190611892565b60405180910390f35b5f808411610369576040517f08c379a000000000000000000000000000000000000000000000000000000000815260040161036090611a3a565b60405180910390fd5b5f8311801561037757505f82115b6103b6576040517f08c379a00000000000000000000000000000000000000000000000000000000081526004016103ad90611aa2565b60405180910390fd5b5f612710601e6127106103c99190611aed565b866103d49190611b20565b6103de9190611b8e565b90505f83826103ed9190611b20565b90505f82866103fc9190611bbe565b9050808261040a9190611b8e565b93505050509392505050565b60015f9054906101000a900473ffffffffffffffffffffffffffffffffffffffff1681565b60045481565b5f8060035411610486576040517f08c379a000000000000000000000000000000000000000000000000000000000815260040161047d90611c3b565b60405180910390fd5b600354670de0b6b3a764000060045461049f9190611b20565b6104a99190611b8e565b905090565b5f6001600554146104f4576040517f08c379a00000000000000000000000000000000000000000000000000000000081526004016104eb90611ca3565b60405180910390fd5b60026005819055505f831161053e576040517f08c379a000000000000000000000000000000000000000000000000000000000815260040161053590611a3a565b60405180910390fd5b61054d83600354600454610326565b905081811015610592576040517f08c379a000000000000000000000000000000000000000000000000000000000815260040161058990611d0b565b60405180910390fd5b60015f9054906101000a900473ffffffffffffffffffffffffffffffffffffffff1673ffffffffffffffffffffffffffffffffffffffff166323b872dd3330866040518463ffffffff1660e01b81526004016105f093929190611d49565b6020604051808303815f875af115801561060c573d5f803e3d5ffd5b505050506040513d601f19601f820116820180604052508101906106309190611db3565b61066f576040517f08c379a000000000000000000000000000000000000000000000000000000000815260040161066690611e28565b60405180910390fd5b5f612710601e856106809190611b20565b61068a9190611b8e565b90505f81856106999190611aed565b90508060035f8282546106ac9190611bbe565b925050819055508260045f8282546106c49190611aed565b9250508190555060025f9054906101000a900473ffffffffffffffffffffffffffffffffffffffff1673ffffffffffffffffffffffffffffffffffffffff1663a9059cbb33856040518363ffffffff1660e01b8152600401610727929190611e46565b6020604051808303815f875af1158015610743573d5f803e3d5ffd5b505050506040513d601f19601f820116820180604052508101906107679190611db3565b6107a6576040517f08c379a000000000000000000000000000000000000000000000000000000000815260040161079d90611eb7565b60405180910390fd5b60025f9054906101000a900473ffffffffffffffffffffffffffffffffffffffff1673ffffffffffffffffffffffffffffffffffffffff1660015f9054906101000a900473ffffffffffffffffffffffffffffffffffffffff1673ffffffffffffffffffffffffffffffffffffffff163373ffffffffffffffffffffffffffffffffffffffff167fb39c9bc43f811e1a7ce159c5f147458fdb80266bf23c17322013316e27e086d0888760405161085e929190611ed5565b60405180910390a45050600160058190555092915050565b5f6001600554146108bc576040517f08c379a00000000000000000000000000000000000000000000000000000000081526004016108b390611ca3565b60405180910390fd5b60026005819055505f8311610906576040517f08c379a00000000000000000000000000000000000000000000000000000000081526004016108fd90611a3a565b60405180910390fd5b61091583600454600354610326565b90508181101561095a576040517f08c379a000000000000000000000000000000000000000000000000000000000815260040161095190611d0b565b60405180910390fd5b60025f9054906101000a900473ffffffffffffffffffffffffffffffffffffffff1673ffffffffffffffffffffffffffffffffffffffff166323b872dd3330866040518463ffffffff1660e01b81526004016109b893929190611d49565b6020604051808303815f875af11580156109d4573d5f803e3d5ffd5b505050506040513d601f19601f820116820180604052508101906109f89190611db3565b610a37576040517f08c379a0000000000000000000000000000000000000000000000000000000008152600401610a2e90611e28565b60405180910390fd5b5f612710601e85610a489190611b20565b610a529190611b8e565b90505f8185610a619190611aed565b90508060045f828254610a749190611bbe565b925050819055508260035f828254610a8c9190611aed565b9250508190555060015f9054906101000a900473ffffffffffffffffffffffffffffffffffffffff1673ffffffffffffffffffffffffffffffffffffffff1663a9059cbb33856040518363ffffffff1660e01b8152600401610aef929190611e46565b6020604051808303815f875af1158015610b0b573d5f803e3d5ffd5b505050506040513d601f19601f82011682018060405250810190610b2f9190611db3565b610b6e576040517f08c379a0000000000000000000000000000000000000000000000000000000008152600401610b6590611eb7565b60405180910390fd5b60015f9054906101000a900473ffffffffffffffffffffffffffffffffffffffff1673ffffffffffffffffffffffffffffffffffffffff1660025f9054906101000a900473ffffffffffffffffffffffffffffffffffffffff1673ffffffffffffffffffffffffffffffffffffffff163373ffffffffffffffffffffffffffffffffffffffff167fb39c9bc43f811e1a7ce159c5f147458fdb80266bf23c17322013316e27e086d08887604051610c26929190611ed5565b60405180910390a45050600160058190555092915050565b60025f9054906101000a900473ffffffffffffffffffffffffffffffffffffffff1681565b5f8054906101000a900473ffffffffffffffffffffffffffffffffffffffff1681565b5f808203610c96575f9050610cf2565b5f6002600184610ca69190611bbe565b610cb09190611b8e565b90505f8390505b80821015610cec578190506002828386610cd19190611b8e565b610cdb9190611bbe565b610ce59190611b8e565b9150610cb7565b80925050505b919050565b600160055414610d3c576040517f08c379a0000000000000000000000000000000000000000000000000000000008152600401610d3390611ca3565b60405180910390fd5b60026005819055505f8311610d86576040517f08c379a0000000000000000000000000000000000000000000000000000000008152600401610d7d90611f46565b60405180910390fd5b825f8054906101000a900473ffffffffffffffffffffffffffffffffffffffff1673ffffffffffffffffffffffffffffffffffffffff166370a08231336040518263ffffffff1660e01b8152600401610ddf9190611f64565b602060405180830381865afa158015610dfa573d5f803e3d5ffd5b505050506040513d601f19601f82011682018060405250810190610e1e9190611f91565b1015610e5f576040517f08c379a0000000000000000000000000000000000000000000000000000000008152600401610e5690612006565b60405180910390fd5b5f805f9054906101000a900473ffffffffffffffffffffffffffffffffffffffff1673ffffffffffffffffffffffffffffffffffffffff166318160ddd6040518163ffffffff1660e01b8152600401602060405180830381865afa158015610ec9573d5f803e3d5ffd5b505050506040513d601f19601f82011682018060405250810190610eed9190611f91565b90505f8160035486610eff9190611b20565b610f099190611b8e565b90505f8260045487610f1b9190611b20565b610f259190611b8e565b905084821015610f6a576040517f08c379a0000000000000000000000000000000000000000000000000000000008152600401610f619061206e565b60405180910390fd5b83811015610fad576040517f08c379a0000000000000000000000000000000000000000000000000000000008152600401610fa4906120d6565b60405180910390fd5b5f8054906101000a900473ffffffffffffffffffffffffffffffffffffffff1673ffffffffffffffffffffffffffffffffffffffff16639dc29fac33886040518363ffffffff1660e01b8152600401611007929190611e46565b5f604051808303815f87803b15801561101e575f80fd5b505af1158015611030573d5f803e3d5ffd5b505050508160035f8282546110459190611aed565b925050819055508060045f82825461105d9190611aed565b9250508190555060015f9054906101000a900473ffffffffffffffffffffffffffffffffffffffff1673ffffffffffffffffffffffffffffffffffffffff1663a9059cbb33846040518363ffffffff1660e01b81526004016110c0929190611e46565b6020604051808303815f875af11580156110dc573d5f803e3d5ffd5b505050506040513d601f19601f820116820180604052508101906111009190611db3565b61113f576040517f08c379a00000000000000000000000000000000000000000000000000000000081526004016111369061213e565b60405180910390fd5b60025f9054906101000a900473ffffffffffffffffffffffffffffffffffffffff1673ffffffffffffffffffffffffffffffffffffffff1663a9059cbb33836040518363ffffffff1660e01b815260040161119b929190611e46565b6020604051808303815f875af11580156111b7573d5f803e3d5ffd5b505050506040513d601f19601f820116820180604052508101906111db9190611db3565b61121a576040517f08c379a0000000000000000000000000000000000000000000000000000000008152600401611211906121a6565b60405180910390fd5b3373ffffffffffffffffffffffffffffffffffffffff167f1dc8bb69df2b8e91fbdcbfcf93d951b3f0000f085a95fe3f7946d6161439245d838389604051611264939291906121c4565b60405180910390a25050506001600581905550505050565b5f8211801561128a57505f81115b6112c9576040517f08c379a00000000000000000000000000000000000000000000000000000000081526004016112c090612243565b60405180910390fd5b60015f9054906101000a900473ffffffffffffffffffffffffffffffffffffffff1673ffffffffffffffffffffffffffffffffffffffff166323b872dd3330856040518463ffffffff1660e01b815260040161132793929190611d49565b6020604051808303815f875af1158015611343573d5f803e3d5ffd5b505050506040513d601f19601f820116820180604052508101906113679190611db3565b6113a6576040517f08c379a000000000000000000000000000000000000000000000000000000000815260040161139d9061213e565b60405180910390fd5b60025f9054906101000a900473ffffffffffffffffffffffffffffffffffffffff1673ffffffffffffffffffffffffffffffffffffffff166323b872dd3330846040518463ffffffff1660e01b815260040161140493929190611d49565b6020604051808303815f875af1158015611420573d5f803e3d5ffd5b505050506040513d601f19601f820116820180604052508101906114449190611db3565b611483576040517f08c379a000000000000000000000000000000000000000000000000000000000815260040161147a906121a6565b60405180910390fd5b5f8060035414801561149657505f600454145b156114f8576114af82846114aa9190611b20565b610c86565b90505f81116114f3576040517f08c379a00000000000000000000000000000000000000000000000000000000081526004016114ea906122ab565b60405180910390fd5b61165a565b5f6003545f8054906101000a900473ffffffffffffffffffffffffffffffffffffffff1673ffffffffffffffffffffffffffffffffffffffff166318160ddd6040518163ffffffff1660e01b8152600401602060405180830381865afa158015611564573d5f803e3d5ffd5b505050506040513d601f19601f820116820180604052508101906115889190611f91565b856115939190611b20565b61159d9190611b8e565b90505f6004545f8054906101000a900473ffffffffffffffffffffffffffffffffffffffff1673ffffffffffffffffffffffffffffffffffffffff166318160ddd6040518163ffffffff1660e01b8152600401602060405180830381865afa15801561160b573d5f803e3d5ffd5b505050506040513d601f19601f8201168201806040525081019061162f9190611f91565b8561163a9190611b20565b6116449190611b8e565b90508082106116535780611655565b815b925050505b8260035f82825461166b9190611bbe565b925050819055508160045f8282546116839190611bbe565b925050819055505f8054906101000a900473ffffffffffffffffffffffffffffffffffffffff1673ffffffffffffffffffffffffffffffffffffffff166340c10f1933836040518363ffffffff1660e01b81526004016116e4929190611e46565b5f604051808303815f87803b1580156116fb575f80fd5b505af115801561170d573d5f803e3d5ffd5b505050503373ffffffffffffffffffffffffffffffffffffffff167f64b83944e79c3ce8d4c297411de637c3e102d064677aac0c163976ebdcd6f50e84848460405161175b939291906121c4565b60405180910390a2505050565b5f80600454116117ad576040517f08c379a00000000000000000000000000000000000000000000000000000000081526004016117a490611c3b565b60405180910390fd5b600454670de0b6b3a76400006003546117c69190611b20565b6117d09190611b8e565b905090565b601e81565b61271081565b60035481565b5f6004546003546117f79190611b20565b905090565b5f80fd5b5f819050919050565b61181281611800565b811461181c575f80fd5b50565b5f8135905061182d81611809565b92915050565b5f805f6060848603121561184a576118496117fc565b5b5f6118578682870161181f565b93505060206118688682870161181f565b92505060406118798682870161181f565b9150509250925092565b61188c81611800565b82525050565b5f6020820190506118a55f830184611883565b92915050565b5f73ffffffffffffffffffffffffffffffffffffffff82169050919050565b5f819050919050565b5f6118ed6118e86118e3846118ab565b6118ca565b6118ab565b9050919050565b5f6118fe826118d3565b9050919050565b5f61190f826118f4565b9050919050565b61191f81611905565b82525050565b5f6020820190506119385f830184611916565b92915050565b5f8060408385031215611954576119536117fc565b5b5f6119618582860161181f565b92505060206119728582860161181f565b9150509250929050565b5f611986826118f4565b9050919050565b6119968161197c565b82525050565b5f6020820190506119af5f83018461198d565b92915050565b5f602082840312156119ca576119c96117fc565b5b5f6119d78482850161181f565b91505092915050565b5f82825260208201905092915050565b7f416d6f756e7420696e206d75737420626520706f7369746976650000000000005f82015250565b5f611a24601a836119e0565b9150611a2f826119f0565b602082019050919050565b5f6020820190508181035f830152611a5181611a18565b9050919050565b7f496e73756666696369656e74206c6971756964697479000000000000000000005f82015250565b5f611a8c6016836119e0565b9150611a9782611a58565b602082019050919050565b5f6020820190508181035f830152611ab981611a80565b9050919050565b7f4e487b71000000000000000000000000000000000000000000000000000000005f52601160045260245ffd5b5f611af782611800565b9150611b0283611800565b9250828203905081811115611b1a57611b19611ac0565b5b92915050565b5f611b2a82611800565b9150611b3583611800565b9250828202611b4381611800565b91508282048414831517611b5a57611b59611ac0565b5b5092915050565b7f4e487b71000000000000000000000000000000000000000000000000000000005f52601260045260245ffd5b5f611b9882611800565b9150611ba383611800565b925082611bb357611bb2611b61565b5b828204905092915050565b5f611bc882611800565b9150611bd383611800565b9250828201905080821115611beb57611bea611ac0565b5b92915050565b7f4e6f206c697175696469747900000000000000000000000000000000000000005f82015250565b5f611c25600c836119e0565b9150611c3082611bf1565b602082019050919050565b5f6020820190508181035f830152611c5281611c19565b9050919050565b7f5265656e7472616e637947756172643a207265656e7472616e742063616c6c005f82015250565b5f611c8d601f836119e0565b9150611c9882611c59565b602082019050919050565b5f6020820190508181035f830152611cba81611c81565b9050919050565b7f496e73756666696369656e74206f757470757420616d6f756e740000000000005f82015250565b5f611cf5601a836119e0565b9150611d0082611cc1565b602082019050919050565b5f6020820190508181035f830152611d2281611ce9565b9050919050565b5f611d33826118ab565b9050919050565b611d4381611d29565b82525050565b5f606082019050611d5c5f830186611d3a565b611d696020830185611d3a565b611d766040830184611883565b949350505050565b5f8115159050919050565b611d9281611d7e565b8114611d9c575f80fd5b50565b5f81519050611dad81611d89565b92915050565b5f60208284031215611dc857611dc76117fc565b5b5f611dd584828501611d9f565b91505092915050565b7f496e707574207472616e73666572206661696c656400000000000000000000005f82015250565b5f611e126015836119e0565b9150611e1d82611dde565b602082019050919050565b5f6020820190508181035f830152611e3f81611e06565b9050919050565b5f604082019050611e595f830185611d3a565b611e666020830184611883565b9392505050565b7f4f7574707574207472616e73666572206661696c6564000000000000000000005f82015250565b5f611ea16016836119e0565b9150611eac82611e6d565b602082019050919050565b5f6020820190508181035f830152611ece81611e95565b9050919050565b5f604082019050611ee85f830185611883565b611ef56020830184611883565b9392505050565b7f4c6971756964697479206d75737420626520706f7369746976650000000000005f82015250565b5f611f30601a836119e0565b9150611f3b82611efc565b602082019050919050565b5f6020820190508181035f830152611f5d81611f24565b9050919050565b5f602082019050611f775f830184611d3a565b92915050565b5f81519050611f8b81611809565b92915050565b5f60208284031215611fa657611fa56117fc565b5b5f611fb384828501611f7d565b91505092915050565b7f496e73756666696369656e74204c5020746f6b656e73000000000000000000005f82015250565b5f611ff06016836119e0565b9150611ffb82611fbc565b602082019050919050565b5f6020820190508181035f83015261201d81611fe4565b9050919050565b7f496e73756666696369656e7420746f6b656e41206f75747075740000000000005f82015250565b5f612058601a836119e0565b915061206382612024565b602082019050919050565b5f6020820190508181035f8301526120858161204c565b9050919050565b7f496e73756666696369656e7420746f6b656e42206f75747075740000000000005f82015250565b5f6120c0601a836119e0565b91506120cb8261208c565b602082019050919050565b5f6020820190508181035f8301526120ed816120b4565b9050919050565b7f546f6b656e41207472616e73666572206661696c6564000000000000000000005f82015250565b5f6121286016836119e0565b9150612133826120f4565b602082019050919050565b5f6020820190508181035f8301526121558161211c565b9050919050565b7f546f6b656e42207472616e73666572206661696c6564000000000000000000005f82015250565b5f6121906016836119e0565b915061219b8261215c565b602082019050919050565b5f6020820190508181035f8301526121bd81612184565b9050919050565b5f6060820190506121d75f830186611883565b6121e46020830185611883565b6121f16040830184611883565b949350505050565b7f416d6f756e7473206d75737420626520706f73697469766500000000000000005f82015250565b5f61222d6018836119e0565b9150612238826121f9565b602082019050919050565b5f6020820190508181035f83015261225a81612221565b9050919050565b7f496e76616c6964206c697175696469747920616d6f756e7400000000000000005f82015250565b5f6122956018836119e0565b91506122a082612261565b602082019050919050565b5f6020820190508181035f8301526122c281612289565b905091905056fea264697066735822122054e8ecd329dceecacbb442181729511c7138d89ba908ccce295955d371263a5964736f6c63430008140033608060405234801562000010575f80fd5b506040518060400160405280601881526020017f4c69717569646974792050726f766964657220546f6b656e00000000000000008152506040518060400160405280600281526020017f4c5000000000000000000000000000000000000000000000000000000000000081525081600390816200008e91906200034d565b508060049081620000a091906200034d565b5050503360055f6101000a81548173ffffffffffffffffffffffffffffffffffffffff021916908373ffffffffffffffffffffffffffffffffffffffff16021790555062000431565b5f81519050919050565b7f4e487b71000000000000000000000000000000000000000000000000000000005f52604160045260245ffd5b7f4e487b71000000000000000000000000000000000000000000000000000000005f52602260045260245ffd5b5f60028204905060018216806200016557607f821691505b6020821081036200017b576200017a62000120565b5b50919050565b5f819050815f5260205f209050919050565b5f6020601f8301049050919050565b5f82821b905092915050565b5f60088302620001df7fffffffffffffffffffffffffffffffffffffffffffffffffffffffffffffffff82620001a2565b620001eb8683620001a2565b95508019841693508086168417925050509392505050565b5f819050919050565b5f819050919050565b5f620002356200022f620002298462000203565b6200020c565b62000203565b9050919050565b5f819050919050565b620002508362000215565b620002686200025f826200023c565b848454620001ae565b825550505050565b5f90565b6200027e62000270565b6200028b81848462000245565b505050565b5b81811015620002b257620002a65f8262000274565b60018101905062000291565b5050565b601f8211156200030157620002cb8162000181565b620002d68462000193565b81016020851015620002e6578190505b620002fe620002f58562000193565b83018262000290565b50505b505050565b5f82821c905092915050565b5f620003235f198460080262000306565b1980831691505092915050565b5f6200033d838362000312565b9150826002028217905092915050565b6200035882620000e9565b67ffffffffffffffff811115620003745762000373620000f3565b5b6200038082546200014d565b6200038d828285620002b6565b5f60209050601f831160018114620003c3575f8415620003ae578287015190505b620003ba858262000330565b86555062000429565b601f198416620003d38662000181565b5f5b82811015620003fc57848901518255600182019150602085019450602081019050620003d5565b868310156200041c578489015162000418601f89168262000312565b8355505b6001600288020188555050505b505050505050565b611781806200043f5f395ff3fe608060405234801561000f575f80fd5b50600436106100b2575f3560e01c806340c10f191161006f57806340c10f191461018e57806370a08231146101aa57806395d89b41146101da5780639dc29fac146101f8578063a9059cbb14610214578063dd62ed3e14610244576100b2565b806306fdde03146100b6578063095ea7b3146100d457806318160ddd1461010457806323b872dd146101225780632a94394514610152578063313ce56714610170575b5f80fd5b6100be610274565b6040516100cb9190610ee2565b60405180910390f35b6100ee60048036038101906100e99190610f93565b610304565b6040516100fb9190610feb565b60405180910390f35b61010c61031f565b6040516101199190611013565b60405180910390f35b61013c6004803603810190610137919061102c565b610328565b6040516101499190610feb565b60405180910390f35b61015a61034f565b604051610167919061108b565b60405180910390f35b610178610374565b60405161018591906110bf565b60405180910390f35b6101a860048036038101906101a39190610f93565b61037c565b005b6101c460048036038101906101bf91906110d8565b610419565b6040516101d19190611013565b60405180910390f35b6101e261045e565b6040516101ef9190610ee2565b60405180910390f35b610212600480360381019061020d9190610f93565b6104ee565b005b61022e60048036038101906102299190610f93565b61058b565b60405161023b9190610feb565b60405180910390f35b61025e60048036038101906102599190611103565b6105a6565b60405161026b9190611013565b60405180910390f35b6060600380546102839061116e565b80601f01602080910402602001604051908101604052809291908181526020018280546102af9061116e565b80156102fa5780601f106102d1576101008083540402835291602001916102fa565b820191905f5260205f20905b8154815290600101906020018083116102dd57829003601f168201915b5050505050905090565b5f80339050610314818585610628565b600191505092915050565b5f600254905090565b5f803390506103388582856107eb565b6103438585856108ee565b60019150509392505050565b60055f9054906101000a900473ffffffffffffffffffffffffffffffffffffffff1681565b5f6012905090565b60055f9054906101000a900473ffffffffffffffffffffffffffffffffffffffff1673ffffffffffffffffffffffffffffffffffffffff163373ffffffffffffffffffffffffffffffffffffffff161461040b576040517f08c379a0000000000000000000000000000000000000000000000000000000008152600401610402906111e8565b60405180910390fd5b6104158282610b57565b5050565b5f805f8373ffffffffffffffffffffffffffffffffffffffff1673ffffffffffffffffffffffffffffffffffffffff1681526020019081526020015f20549050919050565b60606004805461046d9061116e565b80601f01602080910402602001604051908101604052809291908181526020018280546104999061116e565b80156104e45780601f106104bb576101008083540402835291602001916104e4565b820191905f5260205f20905b8154815290600101906020018083116104c757829003601f168201915b5050505050905090565b60055f9054906101000a900473ffffffffffffffffffffffffffffffffffffffff1673ffffffffffffffffffffffffffffffffffffffff163373ffffffffffffffffffffffffffffffffffffffff161461057d576040517f08c379a0000000000000000000000000000000000000000000000000000000008152600401610574906111e8565b60405180910390fd5b6105878282610c98565b5050565b5f8033905061059b8185856108ee565b600191505092915050565b5f60015f8473ffffffffffffffffffffffffffffffffffffffff1673ffffffffffffffffffffffffffffffffffffffff1681526020019081526020015f205f8373ffffffffffffffffffffffffffffffffffffffff1673ffffffffffffffffffffffffffffffffffffffff1681526020019081526020015f2054905092915050565b5f73ffffffffffffffffffffffffffffffffffffffff168373ffffffffffffffffffffffffffffffffffffffff1603610696576040517f08c379a000000000000000000000000000000000000000000000000000000000815260040161068d90611276565b60405180910390fd5b5f73ffffffffffffffffffffffffffffffffffffffff168273ffffffffffffffffffffffffffffffffffffffff1603610704576040517f08c379a00000000000000000000000000000000000000000000000000000000081526004016106fb90611304565b60405180910390fd5b8060015f8573ffffffffffffffffffffffffffffffffffffffff1673ffffffffffffffffffffffffffffffffffffffff1681526020019081526020015f205f8473ffffffffffffffffffffffffffffffffffffffff1673ffffffffffffffffffffffffffffffffffffffff1681526020019081526020015f20819055508173ffffffffffffffffffffffffffffffffffffffff168373ffffffffffffffffffffffffffffffffffffffff167f8c5be1e5ebec7d5bd14f71427d1e84f3dd0314c0f7b2291e5b200ac8c7c3b925836040516107de9190611013565b60405180910390a3505050565b5f60015f8573ffffffffffffffffffffffffffffffffffffffff1673ffffffffffffffffffffffffffffffffffffffff1681526020019081526020015f205f8473ffffffffffffffffffffffffffffffffffffffff1673ffffffffffffffffffffffffffffffffffffffff1681526020019081526020015f205490507fffffffffffffffffffffffffffffffffffffffffffffffffffffffffffffffff81146108e857818110156108d1576040517f08c379a00000000000000000000000000000000000000000000000000000000081526004016108c89061136c565b60405180910390fd5b6108e7848484846108e291906113b7565b610628565b5b50505050565b5f73ffffffffffffffffffffffffffffffffffffffff168373ffffffffffffffffffffffffffffffffffffffff160361095c576040517f08c379a00000000000000000000000000000000000000000000000000000000081526004016109539061145a565b60405180910390fd5b5f73ffffffffffffffffffffffffffffffffffffffff168273ffffffffffffffffffffffffffffffffffffffff16036109ca576040517f08c379a00000000000000000000000000000000000000000000000000000000081526004016109c1906114e8565b60405180910390fd5b805f808573ffffffffffffffffffffffffffffffffffffffff1673ffffffffffffffffffffffffffffffffffffffff1681526020019081526020015f20541015610a49576040517f08c379a0000000000000000000000000000000000000000000000000000000008152600401610a4090611576565b60405180910390fd5b805f808573ffffffffffffffffffffffffffffffffffffffff1673ffffffffffffffffffffffffffffffffffffffff1681526020019081526020015f205f828254610a9491906113b7565b92505081905550805f808473ffffffffffffffffffffffffffffffffffffffff1673ffffffffffffffffffffffffffffffffffffffff1681526020019081526020015f205f828254610ae69190611594565b925050819055508173ffffffffffffffffffffffffffffffffffffffff168373ffffffffffffffffffffffffffffffffffffffff167fddf252ad1be2c89b69c2b068fc378daa952ba7f163c4a11628f55a4df523b3ef83604051610b4a9190611013565b60405180910390a3505050565b5f73ffffffffffffffffffffffffffffffffffffffff168273ffffffffffffffffffffffffffffffffffffffff1603610bc5576040517f08c379a0000000000000000000000000000000000000000000000000000000008152600401610bbc90611611565b60405180910390fd5b8060025f828254610bd69190611594565b92505081905550805f808473ffffffffffffffffffffffffffffffffffffffff1673ffffffffffffffffffffffffffffffffffffffff1681526020019081526020015f205f828254610c289190611594565b925050819055508173ffffffffffffffffffffffffffffffffffffffff165f73ffffffffffffffffffffffffffffffffffffffff167fddf252ad1be2c89b69c2b068fc378daa952ba7f163c4a11628f55a4df523b3ef83604051610c8c9190611013565b60405180910390a35050565b5f73ffffffffffffffffffffffffffffffffffffffff168273ffffffffffffffffffffffffffffffffffffffff1603610d06576040517f08c379a0000000000000000000000000000000000000000000000000000000008152600401610cfd9061169f565b60405180910390fd5b805f808473ffffffffffffffffffffffffffffffffffffffff1673ffffffffffffffffffffffffffffffffffffffff1681526020019081526020015f20541015610d85576040517f08c379a0000000000000000000000000000000000000000000000000000000008152600401610d7c9061172d565b60405180910390fd5b805f808473ffffffffffffffffffffffffffffffffffffffff1673ffffffffffffffffffffffffffffffffffffffff1681526020019081526020015f205f828254610dd091906113b7565b925050819055508060025f828254610de891906113b7565b925050819055505f73ffffffffffffffffffffffffffffffffffffffff168273ffffffffffffffffffffffffffffffffffffffff167fddf252ad1be2c89b69c2b068fc378daa952ba7f163c4a11628f55a4df523b3ef83604051610e4c9190611013565b60405180910390a35050565b5f81519050919050565b5f82825260208201905092915050565b5f5b83811015610e8f578082015181840152602081019050610e74565b5f8484015250505050565b5f601f19601f8301169050919050565b5f610eb482610e58565b610ebe8185610e62565b9350610ece818560208601610e72565b610ed781610e9a565b840191505092915050565b5f6020820190508181035f830152610efa8184610eaa565b905092915050565b5f80fd5b5f73ffffffffffffffffffffffffffffffffffffffff82169050919050565b5f610f2f82610f06565b9050919050565b610f3f81610f25565b8114610f49575f80fd5b50565b5f81359050610f5a81610f36565b92915050565b5f819050919050565b610f7281610f60565b8114610f7c575f80fd5b50565b5f81359050610f8d81610f69565b92915050565b5f8060408385031215610fa957610fa8610f02565b5b5f610fb685828601610f4c565b9250506020610fc785828601610f7f565b9150509250929050565b5f8115159050919050565b610fe581610fd1565b82525050565b5f602082019050610ffe5f830184610fdc565b92915050565b61100d81610f60565b82525050565b5f6020820190506110265f830184611004565b92915050565b5f805f6060848603121561104357611042610f02565b5b5f61105086828701610f4c565b935050602061106186828701610f4c565b925050604061107286828701610f7f565b9150509250925092565b61108581610f25565b82525050565b5f60208201905061109e5f83018461107c565b92915050565b5f60ff82169050919050565b6110b9816110a4565b82525050565b5f6020820190506110d25f8301846110b0565b92915050565b5f602082840312156110ed576110ec610f02565b5b5f6110fa84828501610f4c565b91505092915050565b5f806040838503121561111957611118610f02565b5b5f61112685828601610f4c565b925050602061113785828601610f4c565b9150509250929050565b7f4e487b71000000000000000000000000000000000000000000000000000000005f52602260045260245ffd5b5f600282049050600182168061118557607f821691505b60208210810361119857611197611141565b5b50919050565b7f4f6e6c7920414d4d2063616e206d696e742f6275726e000000000000000000005f82015250565b5f6111d2601683610e62565b91506111dd8261119e565b602082019050919050565b5f6020820190508181035f8301526111ff816111c6565b9050919050565b7f45524332303a20617070726f76652066726f6d20746865207a65726f206164645f8201527f7265737300000000000000000000000000000000000000000000000000000000602082015250565b5f611260602483610e62565b915061126b82611206565b604082019050919050565b5f6020820190508181035f83015261128d81611254565b9050919050565b7f45524332303a20617070726f766520746f20746865207a65726f2061646472655f8201527f7373000000000000000000000000000000000000000000000000000000000000602082015250565b5f6112ee602283610e62565b91506112f982611294565b604082019050919050565b5f6020820190508181035f83015261131b816112e2565b9050919050565b7f45524332303a20696e73756666696369656e7420616c6c6f77616e63650000005f82015250565b5f611356601d83610e62565b915061136182611322565b602082019050919050565b5f6020820190508181035f8301526113838161134a565b9050919050565b7f4e487b71000000000000000000000000000000000000000000000000000000005f52601160045260245ffd5b5f6113c182610f60565b91506113cc83610f60565b92508282039050818111156113e4576113e361138a565b5b92915050565b7f45524332303a207472616e736665722066726f6d20746865207a65726f2061645f8201527f6472657373000000000000000000000000000000000000000000000000000000602082015250565b5f611444602583610e62565b915061144f826113ea565b604082019050919050565b5f6020820190508181035f83015261147181611438565b9050919050565b7f45524332303a207472616e7366657220746f20746865207a65726f20616464725f8201527f6573730000000000000000000000000000000000000000000000000000000000602082015250565b5f6114d2602383610e62565b91506114dd82611478565b604082019050919050565b5f6020820190508181035f8301526114ff816114c6565b9050919050565b7f45524332303a207472616e7366657220616d6f756e74206578636565647320625f8201527f616c616e63650000000000000000000000000000000000000000000000000000602082015250565b5f611560602683610e62565b915061156b82611506565b604082019050919050565b5f6020820190508181035f83015261158d81611554565b9050919050565b5f61159e82610f60565b91506115a983610f60565b92508282019050808211156115c1576115c061138a565b5b92915050565b7f45524332303a206d696e7420746f20746865207a65726f2061646472657373005f82015250565b5f6115fb601f83610e62565b9150611606826115c7565b602082019050919050565b5f6020820190508181035f830152611628816115ef565b9050919050565b7f45524332303a206275726e2066726f6d20746865207a65726f206164647265735f8201527f7300000000000000000000000000000000000000000000000000000000000000602082015250565b5f611689602183610e62565b91506116948261162f565b604082019050919050565b5f6020820190508181035f8301526116b68161167d565b9050919050565b7f45524332303a206275726e20616d6f756e7420657863656564732062616c616e5f8201527f6365000000000000000000000000000000000000000000000000000000000000602082015250565b5f611717602283610e62565b9150611722826116bd565b604082019050919050565b5f6020820190508181035f8301526117448161170b565b905091905056fea2646970667358221220ed0e8c78296a357450dbe341abb578f898629ce5a562aab506183768a7881c6664736f6c63430008140033","linkReferences":{}},"methodIdentifiers":{"FEE()":"c57981b5","FEE_DENOMINATOR()":"d73792a9","addLiquidity(uint256,uint256)":"9cd441da","getAmountOut(uint256,uint256,uint256)":"054d50d4","getK()":"ee39e7a0","getPriceA()":"4218128a","getPriceB()":"aa0f915b","lpToken()":"5fcbd285","removeLiquidity(uint256,uint256,uint256)":"857620e1","reserveA()":"dc5fa6c5","reserveB()":"19e36f3b","sqrt(uint256)":"677342ce","swapAForB(uint256,uint256)":"553a1db7","swapBForA(uint256,uint256)":"5938c86b","tokenA()":"0fc63d10","tokenB()":"5f64b55b"},"id":19}